{
  "contractName": "EnergyTrading",
  "abi": [
    {
      "constant": true,
      "inputs": [
        {
          "name": "",
          "type": "uint256"
        }
      ],
      "name": "users",
      "outputs": [
        {
          "name": "",
          "type": "address"
        }
      ],
      "payable": false,
      "stateMutability": "view",
      "type": "function"
    },
    {
      "constant": true,
      "inputs": [],
      "name": "SurplusRevenue",
      "outputs": [
        {
          "name": "",
          "type": "uint256"
        }
      ],
      "payable": false,
      "stateMutability": "view",
      "type": "function"
    },
    {
      "constant": true,
      "inputs": [],
      "name": "owner",
      "outputs": [
        {
          "name": "",
          "type": "address"
        }
      ],
      "payable": false,
      "stateMutability": "view",
      "type": "function"
    },
    {
      "constant": true,
      "inputs": [],
      "name": "idCollective",
      "outputs": [
        {
          "name": "",
          "type": "uint256"
        }
      ],
      "payable": false,
      "stateMutability": "view",
      "type": "function"
    },
    {
      "inputs": [],
      "payable": false,
      "stateMutability": "nonpayable",
      "type": "constructor"
    },
    {
      "payable": true,
      "stateMutability": "payable",
      "type": "fallback"
    },
    {
      "anonymous": false,
      "inputs": [
        {
          "indexed": false,
          "name": "accountAddress",
          "type": "address"
        }
      ],
      "name": "LogEnrolled",
      "type": "event"
    },
    {
      "anonymous": false,
      "inputs": [
        {
          "indexed": false,
          "name": "accountAddress",
          "type": "address"
        },
        {
          "indexed": false,
          "name": "amount",
          "type": "uint256"
        }
      ],
      "name": "LogPaymentMade",
      "type": "event"
    },
    {
      "anonymous": false,
      "inputs": [
        {
          "indexed": false,
          "name": "information",
          "type": "string"
        },
        {
          "indexed": false,
          "name": "totalHomes",
          "type": "uint256"
        },
        {
          "indexed": false,
          "name": "collectiveId",
          "type": "uint256"
        }
      ],
      "name": "LogCollectiveAdded",
      "type": "event"
    },
    {
      "anonymous": false,
      "inputs": [
        {
          "indexed": false,
          "name": "accountAddress",
          "type": "address"
        },
        {
          "indexed": false,
          "name": "collectiveId",
          "type": "uint256"
        },
        {
          "indexed": false,
          "name": "numUnitsRefunded",
          "type": "uint256"
        }
      ],
      "name": "LogGetRefund",
      "type": "event"
    },
    {
      "anonymous": false,
      "inputs": [
        {
          "indexed": false,
          "name": "accountAddress",
          "type": "address"
        },
        {
          "indexed": false,
          "name": "SurplusAmount",
          "type": "uint256"
        },
        {
          "indexed": false,
          "name": "collectiveId",
          "type": "uint256"
        }
      ],
      "name": "LogEndSale",
      "type": "event"
    },
    {
      "anonymous": false,
      "inputs": [
        {
          "indexed": false,
          "name": "collectiveId",
          "type": "uint256"
        }
      ],
      "name": "LogUpdated",
      "type": "event"
    },
    {
      "constant": true,
      "inputs": [],
      "name": "getBalance",
      "outputs": [
        {
          "name": "",
          "type": "uint256"
        }
      ],
      "payable": false,
      "stateMutability": "view",
      "type": "function"
    },
    {
      "constant": false,
      "inputs": [],
      "name": "enroll",
      "outputs": [
        {
          "name": "",
          "type": "bool"
        }
      ],
      "payable": false,
      "stateMutability": "nonpayable",
      "type": "function"
    },
    {
      "constant": true,
      "inputs": [],
      "name": "isenrolled",
      "outputs": [
        {
          "name": "",
          "type": "bool"
        }
      ],
      "payable": false,
      "stateMutability": "view",
      "type": "function"
    },
    {
      "constant": false,
      "inputs": [
        {
          "name": "_amount",
          "type": "uint256"
        }
      ],
      "name": "pay",
      "outputs": [
        {
          "name": "",
          "type": "uint256"
        }
      ],
      "payable": true,
      "stateMutability": "payable",
      "type": "function"
    },
    {
      "constant": false,
      "inputs": [
        {
          "name": "_information",
          "type": "string"
        },
        {
          "name": "_totalHomes",
          "type": "uint256"
        }
      ],
      "name": "addCollective",
      "outputs": [
        {
          "name": "",
          "type": "uint256"
        }
      ],
      "payable": false,
      "stateMutability": "nonpayable",
      "type": "function"
    },
    {
      "constant": true,
      "inputs": [
        {
          "name": "collectiveId",
          "type": "uint256"
        }
      ],
      "name": "readCollective",
      "outputs": [
        {
          "name": "",
          "type": "string"
        },
        {
          "name": "",
          "type": "uint256"
        },
        {
          "name": "",
          "type": "bool"
        }
      ],
      "payable": false,
      "stateMutability": "view",
      "type": "function"
    },
    {
      "constant": false,
      "inputs": [
        {
          "name": "collectiveId",
          "type": "uint256"
        },
        {
          "name": "_newinfo",
          "type": "string"
        },
        {
          "name": "_newTotalHomes",
          "type": "uint256"
        }
      ],
      "name": "updateCollective",
      "outputs": [
        {
          "name": "",
          "type": "string"
        },
        {
          "name": "",
          "type": "uint256"
        },
        {
          "name": "",
          "type": "bool"
        }
      ],
      "payable": false,
      "stateMutability": "nonpayable",
      "type": "function"
    },
    {
      "constant": true,
      "inputs": [],
      "name": "getUsers",
      "outputs": [
        {
          "name": "",
          "type": "address[]"
        }
      ],
      "payable": false,
      "stateMutability": "view",
      "type": "function"
    },
    {
      "constant": false,
      "inputs": [
        {
          "name": "collectiveId",
          "type": "uint256"
        },
        {
          "name": "amountUnitsPurchased",
          "type": "uint256"
        }
      ],
      "name": "buyEnergy",
      "outputs": [],
      "payable": true,
      "stateMutability": "payable",
      "type": "function"
    },
    {
      "constant": false,
      "inputs": [
        {
          "name": "collectiveId",
          "type": "uint256"
        }
      ],
      "name": "getRefund",
      "outputs": [],
      "payable": true,
      "stateMutability": "payable",
      "type": "function"
    },
    {
      "constant": true,
      "inputs": [
        {
          "name": "collectiveId",
          "type": "uint256"
        }
      ],
      "name": "getUserNumberOfUnits",
      "outputs": [
        {
          "name": "",
          "type": "uint256"
        }
      ],
      "payable": false,
      "stateMutability": "view",
      "type": "function"
    },
    {
      "constant": false,
      "inputs": [
        {
          "name": "collectiveId",
          "type": "uint256"
        }
      ],
      "name": "endSale",
      "outputs": [],
      "payable": false,
      "stateMutability": "nonpayable",
      "type": "function"
    }
  ],
  "bytecode": "0x60806040526096600155600060035534801561001a57600080fd5b50336000806101000a81548173ffffffffffffffffffffffffffffffffffffffff021916908373ffffffffffffffffffffffffffffffffffffffff1602179055506116ee8061006a6000396000f3fe6080604052600436106100f25760003560e01c80637b5dc94f1161008a578063cdb6d52d11610059578063cdb6d52d14610699578063d2f0be99146106d1578063d3b80b17146106ff578063e65f2a7e1461072a576100f2565b80637b5dc94f1461046a5780638da5cb5b146105d1578063bce18fee14610628578063c290d69114610657576100f2565b8063303ea4ff116100c6578063303ea4ff146102185780633490c94b146102de578063365b98b2146103c45780637547b5471461043f576100f2565b8062ce8e3e146100f757806304d1a8461461016357806312065fe01461019e578063223a8686146101c9575b600080fd5b34801561010357600080fd5b5061010c610759565b6040518080602001828103825283818151815260200191508051906020019060200280838360005b8381101561014f578082015181840152602081019050610134565b505050509050019250505060405180910390f35b34801561016f57600080fd5b5061019c6004803603602081101561018657600080fd5b81019080803590602001909291905050506107e7565b005b3480156101aa57600080fd5b506101b3610a83565b6040518082815260200191505060405180910390f35b3480156101d557600080fd5b50610202600480360360208110156101ec57600080fd5b8101908080359060200190929190505050610aca565b6040518082815260200191505060405180910390f35b34801561022457600080fd5b506102516004803603602081101561023b57600080fd5b8101908080359060200190929190505050610b27565b604051808060200184815260200183151515158152602001828103825285818151815260200191508051906020019080838360005b838110156102a1578082015181840152602081019050610286565b50505050905090810190601f1680156102ce5780820380516001836020036101000a031916815260200191505b5094505050505060405180910390f35b3480156102ea57600080fd5b506103ae6004803603604081101561030157600080fd5b810190808035906020019064010000000081111561031e57600080fd5b82018360208201111561033057600080fd5b8035906020019184600183028401116401000000008311171561035257600080fd5b91908080601f016020809104026020016040519081016040528093929190818152602001838380828437600081840152601f19601f82011690508083019250505050505050919291929080359060200190929190505050610c26565b6040518082815260200191505060405180910390f35b3480156103d057600080fd5b506103fd600480360360208110156103e757600080fd5b8101908080359060200190929190505050610ddf565b604051808273ffffffffffffffffffffffffffffffffffffffff1673ffffffffffffffffffffffffffffffffffffffff16815260200191505060405180910390f35b34801561044b57600080fd5b50610454610e1b565b6040518082815260200191505060405180910390f35b34801561047657600080fd5b506105446004803603606081101561048d57600080fd5b8101908080359060200190929190803590602001906401000000008111156104b457600080fd5b8201836020820111156104c657600080fd5b803590602001918460018302840111640100000000831117156104e857600080fd5b91908080601f016020809104026020016040519081016040528093929190818152602001838380828437600081840152601f19601f82011690508083019250505050505050919291929080359060200190929190505050610e21565b604051808060200184815260200183151515158152602001828103825285818151815260200191508051906020019080838360005b83811015610594578082015181840152602081019050610579565b50505050905090810190601f1680156105c15780820380516001836020036101000a031916815260200191505b5094505050505060405180910390f35b3480156105dd57600080fd5b506105e6610ff8565b604051808273ffffffffffffffffffffffffffffffffffffffff1673ffffffffffffffffffffffffffffffffffffffff16815260200191505060405180910390f35b34801561063457600080fd5b5061063d61101d565b604051808215151515815260200191505060405180910390f35b6106836004803603602081101561066d57600080fd5b8101908080359060200190929190505050611071565b6040518082815260200191505060405180910390f35b6106cf600480360360408110156106af57600080fd5b8101908080359060200190929190803590602001909291905050506111c8565b005b6106fd600480360360208110156106e757600080fd5b8101908080359060200190929190505050611334565b005b34801561070b57600080fd5b506107146114b4565b6040518082815260200191505060405180910390f35b34801561073657600080fd5b5061073f6114ba565b604051808215151515815260200191505060405180910390f35b606060048054806020026020016040519081016040528092919081815260200182805480156107dd57602002820191906000526020600020905b8160009054906101000a900473ffffffffffffffffffffffffffffffffffffffff1673ffffffffffffffffffffffffffffffffffffffff1681526020019060010190808311610793575b5050505050905090565b6000809054906101000a900473ffffffffffffffffffffffffffffffffffffffff1673ffffffffffffffffffffffffffffffffffffffff163373ffffffffffffffffffffffffffffffffffffffff161461084057600080fd5b60006006600083815260200190815260200160002060020160006101000a81548160ff021916908315150217905550606060008090505b81518110156109e85760006006600085815260200190815260200160002060030160008484815181106108a657fe5b602002602001015173ffffffffffffffffffffffffffffffffffffffff1673ffffffffffffffffffffffffffffffffffffffff16815260200190815260200160002054116108f357600080fd5b600060015460066000868152602001908152602001600020600301600085858151811061091c57fe5b602002602001015173ffffffffffffffffffffffffffffffffffffffff1673ffffffffffffffffffffffffffffffffffffffff168152602001908152602001600020540290506000809054906101000a900473ffffffffffffffffffffffffffffffffffffffff1673ffffffffffffffffffffffffffffffffffffffff166108fc829081150290604051600060405180830381858888f193505050501580156109c9573d6000803e3d6000fd5b5080600360008282540192505081905550508080600101915050610877565b507f6497e6dff32a753fe6b3a2b3430e5f86d65c6e35cf360d52eb3494711d7d7a1c6000809054906101000a900473ffffffffffffffffffffffffffffffffffffffff1660035484604051808473ffffffffffffffffffffffffffffffffffffffff1673ffffffffffffffffffffffffffffffffffffffff168152602001838152602001828152602001935050505060405180910390a15050565b6000600560003373ffffffffffffffffffffffffffffffffffffffff1673ffffffffffffffffffffffffffffffffffffffff16815260200190815260200160002054905090565b60006006600083815260200190815260200160002060030160003373ffffffffffffffffffffffffffffffffffffffff1673ffffffffffffffffffffffffffffffffffffffff168152602001908152602001600020549050919050565b60606000806006600085815260200190815260200160002060000160066000868152602001908152602001600020600101546006600087815260200190815260200160002060020160009054906101000a900460ff16828054600181600116156101000203166002900480601f016020809104026020016040519081016040528092919081815260200182805460018160011615610100020316600290048015610c125780601f10610be757610100808354040283529160200191610c12565b820191906000526020600020905b815481529060010190602001808311610bf557829003601f168201915b505050505092509250925092509193909250565b60008060009054906101000a900473ffffffffffffffffffffffffffffffffffffffff1673ffffffffffffffffffffffffffffffffffffffff163373ffffffffffffffffffffffffffffffffffffffff1614610c8157600080fd5b610c8961157a565b838160000181905250828160200181815250506001816040019015159081151581525050806006600060025481526020019081526020016000206000820151816000019080519060200190610cdf92919061159d565b506020820151816001015560408201518160020160006101000a81548160ff0219169083151502179055509050506002600081548092919060010191905055507fdf54df1af7b75f4e116c6f38506d2a833973c1cfff01b99e6d0f5f613b48674884846001600254036040518080602001848152602001838152602001828103825285818151815260200191508051906020019080838360005b83811015610d94578082015181840152602081019050610d79565b50505050905090810190601f168015610dc15780820380516001836020036101000a031916815260200191505b5094505050505060405180910390a160016002540391505092915050565b60048181548110610dec57fe5b906000526020600020016000915054906101000a900473ffffffffffffffffffffffffffffffffffffffff1681565b60035481565b60606000806000809054906101000a900473ffffffffffffffffffffffffffffffffffffffff1673ffffffffffffffffffffffffffffffffffffffff163373ffffffffffffffffffffffffffffffffffffffff1614610e7f57600080fd5b84600660008881526020019081526020016000206000019080519060200190610ea992919061161d565b508360066000888152602001908152602001600020600101819055507f2c17f46df1f52fefcfa42d2a1d15d8ec187ac570843cf3827b66ba966f707302866040518082815260200191505060405180910390a16006600087815260200190815260200160002060000160066000888152602001908152602001600020600101546006600089815260200190815260200160002060020160009054906101000a900460ff16828054600181600116156101000203166002900480601f016020809104026020016040519081016040528092919081815260200182805460018160011615610100020316600290048015610fe25780601f10610fb757610100808354040283529160200191610fe2565b820191906000526020600020905b815481529060010190602001808311610fc557829003601f168201915b5050505050925092509250925093509350939050565b6000809054906101000a900473ffffffffffffffffffffffffffffffffffffffff1681565b6000600760003373ffffffffffffffffffffffffffffffffffffffff1673ffffffffffffffffffffffffffffffffffffffff16815260200190815260200160002060009054906101000a900460ff16905090565b6000600760003373ffffffffffffffffffffffffffffffffffffffff1673ffffffffffffffffffffffffffffffffffffffff16815260200190815260200160002060009054906101000a900460ff166110c957600080fd5b81600560003373ffffffffffffffffffffffffffffffffffffffff1673ffffffffffffffffffffffffffffffffffffffff168152602001908152602001600020600082825401925050819055507f9681ff80e7509a85367bbe3e41c00e9a48dc4d0bedb61321690e83e6f8489fd83383604051808373ffffffffffffffffffffffffffffffffffffffff1673ffffffffffffffffffffffffffffffffffffffff1681526020018281526020019250505060405180910390a1600560003373ffffffffffffffffffffffffffffffffffffffff1673ffffffffffffffffffffffffffffffffffffffff168152602001908152602001600020549050919050565b6006600083815260200190815260200160002060020160009054906101000a900460ff166111f557600080fd5b6000600154820290508034101561120b57600080fd5b816006600085815260200190815260200160002060030160003373ffffffffffffffffffffffffffffffffffffffff1673ffffffffffffffffffffffffffffffffffffffff16815260200190815260200160002060008282540192505081905550803411156112c457600081340390503373ffffffffffffffffffffffffffffffffffffffff166108fc829081150290604051600060405180830381858888f193505050501580156112c1573d6000803e3d6000fd5b50505b7f9681ff80e7509a85367bbe3e41c00e9a48dc4d0bedb61321690e83e6f8489fd83383604051808373ffffffffffffffffffffffffffffffffffffffff1673ffffffffffffffffffffffffffffffffffffffff1681526020018281526020019250505060405180910390a1505050565b60006006600083815260200190815260200160002060030160003373ffffffffffffffffffffffffffffffffffffffff1673ffffffffffffffffffffffffffffffffffffffff168152602001908152602001600020541161139457600080fd5b60006006600083815260200190815260200160002060030160003373ffffffffffffffffffffffffffffffffffffffff1673ffffffffffffffffffffffffffffffffffffffff1681526020019081526020016000205490506000600154820290503373ffffffffffffffffffffffffffffffffffffffff166108fc829081150290604051600060405180830381858888f1935050505015801561143b573d6000803e3d6000fd5b507f73ebb2050cb3ee6869929e7a26925e92e201f14902e155037f1f90af931b3233338484604051808473ffffffffffffffffffffffffffffffffffffffff1673ffffffffffffffffffffffffffffffffffffffff168152602001838152602001828152602001935050505060405180910390a1505050565b60025481565b60006001600760003373ffffffffffffffffffffffffffffffffffffffff1673ffffffffffffffffffffffffffffffffffffffff16815260200190815260200160002060006101000a81548160ff0219169083151502179055507f990c442e6adb818b8fa7db3cf1023decd07f7b66e5306928c7ed527d974192bb33604051808273ffffffffffffffffffffffffffffffffffffffff1673ffffffffffffffffffffffffffffffffffffffff16815260200191505060405180910390a190565b604051806060016040528060608152602001600081526020016000151581525090565b828054600181600116156101000203166002900490600052602060002090601f016020900481019282601f106115de57805160ff191683800117855561160c565b8280016001018555821561160c579182015b8281111561160b5782518255916020019190600101906115f0565b5b509050611619919061169d565b5090565b828054600181600116156101000203166002900490600052602060002090601f016020900481019282601f1061165e57805160ff191683800117855561168c565b8280016001018555821561168c579182015b8281111561168b578251825591602001919060010190611670565b5b509050611699919061169d565b5090565b6116bf91905b808211156116bb5760008160009055506001016116a3565b5090565b9056fea165627a7a7230582075226e1afa978b81da458bea373bbcbc9fb3f854361c03a9bc677754c4b9c5550029",
  "source": "pragma solidity 0.5.8;\n\n/**\n * The energyTrading contract manages collectives and allows home owners to transact\n between each other. Energy producers can sell their energy and buyers pay for it in ether.\n The company or contract owner handles changes in home owners and the creation of new collectives.\n */\n\n // import \"@openzeppelin/contracts/ownership/Ownable.sol\";\n // import \"@openzeppelin/contracts/lifecycle/Destructible.sol\";\n // import \"@openzeppelin/contracts/lifecycle/Pausable.sol\";\n //The Ownable, Destructible and Pausable contracts are all taken from Zeppelin.\ncontract EnergyTrading {\n\n   /*\n        Define an public owner variable. Set it to the creator of the contract when it is initialized.\n        Here, owner represents the energy company.\n    */\n\n  address payable public owner;\n  //Fix price per KW. Random value which will be adjusted in real-time in future upgrades.\n  uint ENERGY_UNIT_PRICE = 150 wei;\n\n  //create a variable to keep track of the collectives with indexed ids.\n  uint public idCollective;\n  uint public SurplusRevenue = 0;\n\n    // create array of users addresses.\n    address[] public users;\n\n  /*Define a Collective Struct with 5 fields. Note that here home owners (and their balances) in the collective\n  are seperated into Producers - those who own our solar panels and produce energy - and\n  buyers - those who collaborate with producers and pay a fee in exchnage for a certain amount of their energy */\n\n  struct Collective {\n    string information;\n    uint totalHomes;\n    bool isOpen;\n    //maps each user address to the number of energy units they bought\n    //We use fixed amount aka units to make it simpler at first. Think of it as monthly specific amount of energy needed for your home.\n    mapping (address => uint) unitsPerUser;\n  }\n\n\n  //  Create a mapping to keep track of the collectives.\n    mapping (address => uint) private balances;\n    mapping (uint => Collective) collectives;\n\n\n  // Not all home owners in a collective are enrolled in our Energy Trading program.\n  //We account for this with an enrolled mapping.\n  mapping (address => bool) enrolled;\n\n  //Events section - each time the state is modified, we emit.\n  event LogEnrolled(address accountAddress);\n  event LogPaymentMade(address accountAddress, uint amount);\n  event LogCollectiveAdded(string information, uint totalHomes, uint collectiveId);\n  event LogGetRefund(address accountAddress, uint collectiveId, uint numUnitsRefunded);\n  event LogEndSale(address accountAddress, uint SurplusAmount, uint collectiveId);\n  event LogUpdated(uint collectiveId);\n\n  // Constructor, can receive one or many variables here; only one allowed\n  constructor() public {\n      /* Set the owner to the creator of this contract */\n      owner = msg.sender;\n  }\n\n\n    /*\n        Create a modifier that throws an error if the msg.sender is not the owner.\n    */\n    modifier isOwner() {\n      if(msg.sender != owner) { revert(); } _;\n    }\n  // Fallback function - Called if other functions don't match call or\n  // sent ether without data\n  // Typically, called when invalid data is sent\n  // Added so ether sent to this contract is reverted if the contract fails\n  // otherwise, the sender's money is transferred to contract\n  function() external payable {\n      revert();\n  }\n\n  function getBalance() public view returns (uint) {\n      /* Get the balance of the sender of this transaction */\n      return(balances[msg.sender]);\n  }\n\n  // enroll new users in a collective\n  function enroll() public returns (bool){\n    enrolled[msg.sender] = true;\n    emit LogEnrolled(msg.sender);\n  }\n\n  //Checks if the user is enrolled in the collective or not.\n  function isenrolled() public view returns(bool) {\n    return(enrolled[msg.sender]);\n  }\n  // Users should be enrolled before they can make payments\n  function pay(uint _amount) public payable returns (uint) {\n      /* Add the amount to the user's balance, call the event associated with a deposit,\n        then return the balance of the user */\n    require(enrolled[msg.sender]);\n    balances[msg.sender] += _amount;\n    emit LogPaymentMade(msg.sender, _amount);\n    return(balances[msg.sender]);\n  }\n\n\n  // FUNCTIONS FOR COLLECTIVES - Only the company aka the owner can add a new collective.\n  //Only thhe Owner should be able to add a new collective on the platform.\n  function addCollective (string memory _information, uint256 _totalHomes)\n  public\n  isOwner()\n  returns (uint)\n    {\n    Collective memory newCollective;\n    newCollective.information = _information;\n    newCollective.totalHomes = _totalHomes;\n    newCollective.isOpen = true;\n    collectives[idCollective] = newCollective;\n    idCollective++;\n    // To obtain the right id, We substract 1 because we just increased idCollective by one\n    emit LogCollectiveAdded(_information, _totalHomes, idCollective - 1);\n    return(idCollective - 1);\n  }\n\n  //Anybody should be able to read a collective's information to make sure one joins the correct one.\n  function readCollective (uint256 collectiveId) public view\n  returns (string memory, uint, bool)\n    {\n    return(collectives[collectiveId].information,\n      collectives[collectiveId].totalHomes,\n      collectives[collectiveId].isOpen);\n  }\n\n//Only the Owner could update the collective if need be (new home Owner address, extented number of homes in one collective).\n  function updateCollective (uint collectiveId, string memory _newinfo, uint _newTotalHomes) public\n  isOwner()\n  returns (string memory, uint, bool)\n    {\n      collectives[collectiveId].information = _newinfo;\n      collectives[collectiveId].totalHomes = _newTotalHomes;\n      emit LogUpdated(collectiveId);\n      return(collectives[collectiveId].information,\n        collectives[collectiveId].totalHomes,\n        collectives[collectiveId].isOpen);\n  }\n\n  function getUsers () public view\n  returns(address[] memory)  {\n    return(users);\n  }\n\n\n  function buyEnergy (uint256 collectiveId, uint amountUnitsPurchased)\n  public payable\n  {\n    require(collectives[collectiveId].isOpen);\n    uint totalCost = amountUnitsPurchased * ENERGY_UNIT_PRICE;\n    require(msg.value >= totalCost);\n    collectives[collectiveId].unitsPerUser[msg.sender] += amountUnitsPurchased;\n\n    if(msg.value > totalCost) {\n      uint refundvalue = msg.value - totalCost;\n      msg.sender.transfer(refundvalue);\n    }\n    emit LogPaymentMade(msg.sender, amountUnitsPurchased);\n  }\n\n  function getRefund (uint collectiveId) public payable\n   {\n    //a user has to have purchased energy units to even ask for a refund\n    require(collectives[collectiveId].unitsPerUser[msg.sender] > 0);\n    uint numUnitsRefunded = collectives[collectiveId].unitsPerUser[msg.sender];\n    uint refundedamount = numUnitsRefunded * ENERGY_UNIT_PRICE;\n    msg.sender.transfer(refundedamount);\n    emit LogGetRefund(msg.sender, collectiveId, numUnitsRefunded);\n  }\n\n  // For user to know how much Energy and therefore Electricity have they bought.\n  function getUserNumberOfUnits (uint collectiveId) public view\n  returns (uint)\n  {\n    return(collectives[collectiveId].unitsPerUser[msg.sender]);\n  }\n\n    /*\n      This Function allows the company to end a collective energy trading system.\n            - close event sales\n            - transfer the balance from those event sales to the contract owner\n            - emit the appropriate event\n    */\n    //Best practices: Reducing the number of loops to just the length of the current user array of the specific collective.\n    function endSale (uint collectiveId) public\n      isOwner()\n    {\n    collectives[collectiveId].isOpen = false;\n     address[] memory _users ;\n    //add valid requiement modifier\n    for (uint i=0; i <_users.length; i++) {\n      require(collectives[collectiveId].unitsPerUser[_users[i]] > 0);\n      uint userSurplus = collectives[collectiveId].unitsPerUser[_users[i]] * ENERGY_UNIT_PRICE;\n      owner.transfer(userSurplus);\n      SurplusRevenue += userSurplus;\n    }\n    // Here I am 'emitting' the total revenue from the Surplus instead of the sum of the user surplus from one collective. I'll probably change that in a later upgrade.\n    emit LogEndSale(owner, SurplusRevenue, collectiveId);\n  }\n}\n",
  "sourcePath": "/Users/victorgardrinier/code/MyPrivateBlockchain/final_project/contracts/EnergyTrading.sol",
  "compiler": {
    "name": "solc",
    "version": "0.5.8+commit.23d335f2.Emscripten.clang"
  },
  "schemaVersion": "3.0.11",
  "updatedAt": "2019-08-01T10:58:34.272Z",
  "devdoc": {
    "methods": {}
  },
  "userdoc": {
    "methods": {},
    "notice": "The energyTrading contract manages collectives and allows home owners to transact between each other. Energy producers can sell their energy and buyers pay for it in ether. The company or contract owner handles changes in home owners and the creation of new collectives."
  }
}